:100000000C9431000C9443000C9443000C94430076
:100010000C9443000C9443000C9443000C94430054
:100020000C9443000C9443000C9443000C94430044
:100030000C9443000C946B000C94BD000C94940041
:100040000C9443000C9443000C9443000C94430024
:100050000C9443008A018C018E019001920194015D
:10006000960111241FBECFE5D8E0DEBFCDBF20E052
:10007000A0E6B0E001C01D92A237B207E1F70E94EE
:1000800045000C940F040C940000E0E6F0E083E0DF
:10009000808340E855E260E070E0478350876187E5
:1000A000728791E0918315828483138212820E9469
:1000B00060000E94E6000E94DA010E946700FBCF08
:1000C0008DB180658DB987B3806B87BB08958FB97B
:1000D000779BFECF08951F920F920FB60F921124B7
:1000E0002F933F934F935F936F937F938F939F9340
:1000F000AF93BF93EF93FF93E0916C00F0916D008D
:10010000309709F00995FF91EF91BF91AF919F91C1
:100110008F917F916F915F914F913F912F910F90B0
:100120000FBE0F901F9018951F920F920FB60F924F
:1001300011242F933F934F935F936F937F938F93EC
:100140009F93AF93BF93EF93FF93E0916E00F09175
:100150006F00309709F00995FF91EF91BF91AF9132
:100160009F918F917F916F915F914F913F912F91CF
:100170000F900FBE0F901F9018951F920F920FB601
:100180000F9211242F933F934F935F936F937F931D
:100190008F939F93AF93BF93EF93FF93E091700082
:1001A000F0917100309709F00995FF91EF91BF919F
:1001B000AF919F918F917F916F915F914F913F91FF
:1001C0002F910F900FBE0F901F901895CF92DF9236
:1001D000EF92FF920F931F93CF93DF938091600074
:1001E000823051F0833031F0813011F0D0E005C021
:1001F000D8E003C0D8E101C0D0E180916100813036
:1002000041F120F0823009F447C06AC06091670074
:10021000709168008091690090916A000E940E03BD
:1002200020E030E040E851E40E949C039B01AC01D7
:1002300060E074E284E799E40E946D0220E030E01F
:1002400040E05FE30E9400026B017C01C0E010E02F
:100250004FC0609167007091680080916900909133
:100260006A000E940E0320E030E040E051E40E946A
:100270009C039B01AC0160E074E284E799E40E9476
:100280006D0220E030E040E05FE30E9400026B017D
:100290007C01C0E012E02CC000E610E0F8016781AC
:1002A0007085818592850E940E039B01AC010E949E
:1002B00001029B01AC0160E074E284E799E40E94D2
:1002C0006D0220E030E040E05FE30E9400026B013D
:1002D0007C01F8018681813049F0C0E410E008C05B
:1002E000C12CD12C7601C0E010E002C0C1E410E0C6
:1002F00080916200813009F41160E09163008E2FDB
:1003000090E0FC013197E730F10588F4E65DFF4F9E
:100310000C940904D0680BC0D06409C0D06207C037
:10032000D06C05C0D06A03C0D06601C0D06E809189
:100330006400823059F018F4813031F00DC0833000
:1003400039F0843039F008C0C26006C0C46004C00F
:10035000C66002C0C660D46080916500833079F0C9
:1003600028F4813041F0823041F00EC0843049F0F1
:10037000853049F009C0C86007C0C06205C0C862C6
:1003800003C0C06301C0C863C701B6010E94DF0299
:1003900070BDC701B6010E94DF0269B91BB9C0BDBB
:1003A000DAB9DF91CF911F910F91FF90EF90DF901D
:1003B000CF9008955F9BFECF8BB18C7179F05C9BE1
:1003C00004C083E080936B0009C05B9B04C082E0A3
:1003D00080936B0003C081E080936B008091640088
:1003E000843049F48AB1827090E09695982F8827DE
:1003F0009795879502C080E090E02CB1822B0895FC
:100400005058BB27AA270E9418020C9462030E942E
:10041000540338F00E945B0320F039F49F3F19F435
:1004200026F40C9451030EF4E095E7FB0C944B0377
:10043000E92F0E94730358F3BA1762077307840702
:10044000950720F079F4A6F50C9495030EF4E09549
:100450000B2EBA2FA02D0B01B90190010C01CA017E
:10046000A0011124FF27591B99F0593F50F4503E29
:1004700068F11A16F040A22F232F342F4427585F1B
:10048000F3CF469537952795A795F0405395C9F733
:100490007EF41F16BA0B620B730B840BBAF09150EB
:1004A000A1F0FF0FBB1F661F771F881FC2F70EC08A
:1004B000BA0F621F731F841F48F48795779567955D
:1004C000B795F7959E3F08F0B0CF9395880F08F049
:1004D0009927EE0F9795879508950E9481020C94B5
:1004E00062030E945B0358F00E94540340F029F419
:1004F0005F3F29F00C944B0351110C9496030C941C
:1005000051030E94730368F39923B1F3552391F3C8
:10051000951B550BBB27AA2762177307840738F072
:100520009F5F5F4F220F331F441FAA1FA9F335D0CF
:100530000E2E3AF0E0E832D091505040E695001C83
:10054000CAF72BD0FE2F29D0660F771F881FBB1F3D
:10055000261737074807AB07B0E809F0BB0B802D1B
:10056000BF01FF2793585F4F3AF09E3F510578F047
:100570000C944B030C9496035F3FE4F3983ED4F342
:10058000869577956795B795F7959F5FC9F7880F1B
:10059000911D9695879597F90895E1E0660F771F6D
:1005A000881FBB1F621773078407BA0720F0621BFE
:1005B000730B840BBA0BEE1F88F7E09508950E9429
:1005C0007B0388F09F5798F0B92F9927B751B0F067
:1005D000E1F0660F771F881F991F1AF0BA95C9F7C7
:1005E00014C0B13091F00E949503B1E008950C94CD
:1005F0009503672F782F8827B85F39F0B93FCCF380
:10060000869577956795B395D9F73EF49095809543
:10061000709561957F4F8F4F9F4F0895E89409C063
:1006200097FB3EF490958095709561957F4F8F4F25
:100630009F4F9923A9F0F92F96E9BB279395F6953B
:10064000879577956795B795F111F8CFFAF4BB0FB9
:1006500011F460FF1BC06F5F7F4F8F4F9F4F16C01D
:10066000882311F096E911C0772321F09EE8872FA7
:10067000762F05C0662371F096E8862F70E060E063
:100680002AF09A95660F771F881FDAF7880F9695DC
:10069000879597F9089597F99F6780E870E060E083
:1006A00008959FEF80EC089500240A94161617060B
:1006B00018060906089500240A9412161306140653
:1006C00005060895092E0394000C11F4882352F0B6
:1006D000BB0F40F4BF2B11F460FF04C06F5F7F4F6E
:1006E0008F4F9F4F089557FD9058440F551F59F055
:1006F0005F3F71F04795880F97FB991F61F09F3F0F
:1007000079F087950895121613061406551FF2CF37
:100710004695F1DF08C0161617061806991FF1CF87
:1007200086957105610508940895E894BB276627AE
:100730007727CB0197F908950E94AF030C946203C9
:100740000E94540338F00E945B0320F0952311F0BF
:100750000C944B030C94510311240C9496030E94A7
:10076000730370F3959FC1F3950F50E0551F629F7F
:10077000F001729FBB27F00DB11D639FAA27F00DFA
:10078000B11DAA1F649F6627B00DA11D661F829F21
:100790002227B00DA11D621F739FB00DA11D621F06
:1007A000839FA00D611D221F749F3327A00D611D23
:1007B000231F849F600D211D822F762F6A2F112405
:1007C0009F5750409AF0F1F088234AF0EE0FFF1F38
:1007D000BB1F661F771F881F91505040A9F79E3F8F
:1007E000510580F00C944B030C9496035F3FE4F3A7
:1007F000983ED4F3869577956795B795F795E795E5
:100800009F5FC1F7FE2B880F911D9695879597F9ED
:100810000895EE0FFF1F0590F491E02D0994F894D0
:02082000FFCF08
:00000001FF
