S01F00005350495F436F6E666967757261626C655F4472697665722E737265631E
S11300000C942A000C943C000C943C000C943C008E
S11300100C943C000C943C000C943C000C943C006C
S11300200C943C000C943C000C943C000C943C005C
S11300300C943F000C943C000C943C000C943C0049
S11300400C943C000C943C000C943C000C943C003C
S11300500C943C0011241FBECFE5D8E0DEBFCDBF19
S113006020E0A0E6B0E001C01D92A936B207E1F796
S11300700E943E000C9468000C940000FFCF1F9275
S11300800F920FB60F9211242F933F934F935F93C8
S11300906F937F938F939F93AF93BF93EF93FF934C
S11300A0E0916500F0916600309709F00995FF91A1
S11300B0EF91BF91AF919F918F917F916F915F91DC
S11300C04F913F912F910F900FBE0F901F90189555
S10700D0F894FFCFCE
S9030000FC
