S011000053504920536C6176652E737265630C
S11300000C9431000C9443000C9443000C94430072
S11300100C9443000C9443000C9443000C94430050
S11300200C9443000C9443000C9443000C94430040
S11300300C9443000C946D000C94BF000C94960037
S11300400C9443000C9443000C9443000C94430020
S11300500C9443008C018E0190019201940196014D
S1130060980111241FBECFE5D8E0DEBFCDBF20E04C
S1130070A0E6B0E001C01D92A237B207E1F70E94EA
S113008045000C94FA030C940000E0E6F0E083E0F1
S1130090808340E855E260E070E0478350876187E1
S11300A0728791E0918315828483138212820E9465
S11300B061000E94E8000E94680090E00E94DC0158
S11300C0FACF8DB180658DB987B3806487BB0895FD
S11300D01FB8779BFECF8FB108951F920F920FB672
S11300E00F9211242F933F934F935F936F937F93BA
S11300F08F939F93AF93BF93EF93FF93E0916C0023
S1130100F0916D00309709F00995FF91EF91BF913F
S1130110AF919F918F917F916F915F914F913F919B
S11301202F910F900FBE0F901F9018951F920F9252
S11301300FB60F9211242F933F934F935F936F93B6
S11301407F938F939F93AF93BF93EF93FF93E0912C
S11301506E00F0916F00309709F00995FF91EF91CF
S1130160BF91AF919F918F917F916F915F914F91CB
S11301703F912F910F900FBE0F901F9018951F92D3
S11301800F920FB60F9211242F933F934F935F93C7
S11301906F937F938F939F93AF93BF93EF93FF934B
S11301A0E0917000F0917100309709F00995FF918A
S11301B0EF91BF91AF919F918F917F916F915F91DB
S11301C04F913F912F910F900FBE0F901F90189554
S11301D0CF92DF92EF92FF920F931F93CF93DF930F
S11301E080916000823051F0833031F0813011F021
S11301F0D0E005C0D8E003C0D8E101C0D0E18091CF
S11302006100813041F120F0823009F447C06AC0B6
S113021060916700709168008091690090916A0014
S11302200E94F90220E030E040E851E40E94870394
S11302309B01AC0160E074E284E799E40E945802F7
S113024020E030E040E05FE30E94EB016B017C01C1
S1130250C0E010E04FC06091670070916800809129
S1130260690090916A000E94F90220E030E040E0C9
S113027051E40E9487039B01AC0160E074E284E7CF
S113028099E40E94580220E030E040E05FE30E94DD
S1130290EB016B017C01C0E012E02CC000E610E031
S11302A0F80167817085818592850E94F9029B011E
S11302B0AC010E94EC019B01AC0160E074E284E7B4
S11302C099E40E94580220E030E040E05FE30E949D
S11302D0EB016B017C01F8018681813049F0C0E4B7
S11302E010E008C0C12CD12C7601C0E010E002C09F
S11302F0C1E410E080916200813009F41160E09162
S113030063008E2F90E0FC013197E730F10588F40B
S1130310E65DFF4F0C94F403D0680BC0D06409C0B1
S1130320D06207C0D06C05C0D06A03C0D06601C0DB
S1130330D06E80916400823059F018F4813031F02D
S11303400DC0833039F0843039F008C0C26006C073
S1130350C46004C0C66002C0C660D46080916500F9
S1130360833079F028F4813041F0823041F00EC0BE
S1130370843049F0853049F009C0C86007C0C062C4
S113038005C0C86203C0C06301C0C863C701B60129
S11303900E94CA0270BDC701B6010E94CA0269B9AF
S11303A01BB9C0BDDAB9DF91CF911F910F91FF90B6
S11303B0EF90DF90CF9008955D9BFECF2091640075
S11303C0243039F42AB12E7FAC0144275170252BF7
S11303D02AB98CB908955058BB27AA270E94030252
S11303E00C944D030E943F0338F00E94460320F012
S11303F039F49F3F19F426F40C943C030EF4E09571
S1130400E7FB0C943603E92F0E945E0358F3BA17F6
S1130410620773078407950720F079F4A6F50C9416
S113042080030EF4E0950B2EBA2FA02D0B01B90119
S113043090010C01CA01A0011124FF27591B99F056
S1130440593F50F4503E68F11A16F040A22F232F62
S1130450342F4427585FF3CF469537952795A795B2
S1130460F0405395C9F77EF41F16BA0B620B730B59
S1130470840BBAF09150A1F0FF0FBB1F661F771FCA
S1130480881FC2F70EC0BA0F621F731F841F48F47F
S1130490879577956795B795F7959E3F08F0B0CF08
S11304A09395880F08F09927EE0F979587950895EF
S11304B00E946C020C944D030E94460358F00E9463
S11304C03F0340F029F45F3F29F00C9436035111A7
S11304D00C9481030C943C030E945E0368F39923FB
S11304E0B1F3552391F3951B550BBB27AA2762172C
S11304F07307840738F09F5F5F4F220F331F441F39
S1130500AA1FA9F335D00E2E3AF0E0E832D091506C
S11305105040E695001CCAF72BD0FE2F29D0660F59
S1130520771F881FBB1F261737074807AB07B0E89C
S113053009F0BB0B802DBF01FF2793585F4F3AF0A2
S11305409E3F510578F00C9436030C9481035F3F71
S1130550E4F3983ED4F3869577956795B795F79528
S11305609F5FC9F7880F911D9695879597F9089510
S1130570E1E0660F771F881FBB1F621773078407AC
S1130580BA0720F0621B730B840BBA0BEE1F88F7BB
S1130590E09508950E94660388F09F5798F0B92F5C
S11305A09927B751B0F0E1F0660F771F881F991FA4
S11305B01AF0BA95C9F714C0B13091F00E948003C3
S11305C0B1E008950C948003672F782F8827B85FD3
S11305D039F0B93FCCF3869577956795B395D9F7FC
S11305E03EF490958095709561957F4F8F4F9F4F06
S11305F00895E89409C097FB3EF490958095709512
S113060061957F4F8F4F9F4F9923A9F0F92F96E95A
S1130610BB279395F695879577956795B795F111CF
S1130620F8CFFAF4BB0F11F460FF1BC06F5F7F4F6C
S11306308F4F9F4F16C0882311F096E911C077237E
S113064021F09EE8872F762F05C0662371F096E887
S1130650862F70E060E02AF09A95660F771F881F56
S1130660DAF7880F9695879597F9089597F99F6714
S113067080E870E060E008959FEF80EC0895002426
S11306800A941616170618060906089500240A94F3
S113069012161306140605060895092E0394000C79
S11306A011F4882352F0BB0F40F4BF2B11F460FF08
S11306B004C06F5F7F4F8F4F9F4F089557FD905831
S11306C0440F551F59F05F3F71F04795880F97FB12
S11306D0991F61F09F3F79F08795089512161306CC
S11306E01406551FF2CF4695F1DF08C016161706FB
S11306F01806991FF1CF8695710561050894089530
S1130700E894BB2766277727CB0197F908950E94C1
S11307109A030C944D030E943F0338F00E94460351
S113072020F0952311F00C9436030C943C0311240F
S11307300C9481030E945E0370F3959FC1F3950F9F
S113074050E0551F629FF001729FBB27F00DB11D51
S1130750639FAA27F00DB11DAA1F649F6627B00DE1
S1130760A11D661F829F2227B00DA11D621F739FCA
S1130770B00DA11D621F839FA00D611D221F749FD8
S11307803327A00D611D231F849F600D211D822F1F
S1130790762F6A2F11249F5750409AF0F1F0882346
S11307A04AF0EE0FFF1FBB1F661F771F881F915073
S11307B05040A9F79E3F510580F00C9436030C94E9
S11307C081035F3FE4F3983ED4F38695779567956C
S11307D0B795F795E7959F5FC1F7FE2B880F911D9D
S11307E09695879597F90895EE0FFF1F0590F4915C
S10B07F0E02D0994F894FFCFF9
S9030000FC
